{
  "_format": "hh-sol-artifact-1",
  "contractName": "PayMyAPI",
  "sourceName": "contracts/PayMyAPI.sol",
  "abi": [
    {
      "inputs": [
        {
          "internalType": "contract ISuperfluid",
          "name": "host",
          "type": "address"
        },
        {
          "internalType": "contract ISuperfluidToken",
          "name": "token_",
          "type": "address"
        },
        {
          "internalType": "address",
          "name": "link",
          "type": "address"
        },
        {
          "internalType": "address",
          "name": "oracle",
          "type": "address"
        },
        {
          "internalType": "uint256",
          "name": "updateInterval",
          "type": "uint256"
        },
        {
          "internalType": "string",
          "name": "chainlinkJobId_",
          "type": "string"
        },
        {
          "internalType": "uint256",
          "name": "chainlinkFee_",
          "type": "uint256"
        }
      ],
      "stateMutability": "nonpayable",
      "type": "constructor"
    },
    {
      "anonymous": false,
      "inputs": [
        {
          "indexed": false,
          "internalType": "address",
          "name": "developer",
          "type": "address"
        },
        {
          "indexed": false,
          "internalType": "string",
          "name": "message",
          "type": "string"
        },
        {
          "indexed": false,
          "internalType": "string",
          "name": "url",
          "type": "string"
        }
      ],
      "name": "ApiAdded",
      "type": "event"
    },
    {
      "anonymous": false,
      "inputs": [
        {
          "indexed": false,
          "internalType": "address",
          "name": "developer",
          "type": "address"
        },
        {
          "indexed": false,
          "internalType": "address",
          "name": "user",
          "type": "address"
        },
        {
          "indexed": false,
          "internalType": "uint256",
          "name": "count",
          "type": "uint256"
        }
      ],
      "name": "AteFromQuota",
      "type": "event"
    },
    {
      "anonymous": false,
      "inputs": [
        {
          "indexed": true,
          "internalType": "bytes32",
          "name": "id",
          "type": "bytes32"
        }
      ],
      "name": "ChainlinkCancelled",
      "type": "event"
    },
    {
      "anonymous": false,
      "inputs": [
        {
          "indexed": true,
          "internalType": "bytes32",
          "name": "id",
          "type": "bytes32"
        }
      ],
      "name": "ChainlinkFulfilled",
      "type": "event"
    },
    {
      "anonymous": false,
      "inputs": [
        {
          "indexed": true,
          "internalType": "bytes32",
          "name": "id",
          "type": "bytes32"
        }
      ],
      "name": "ChainlinkRequested",
      "type": "event"
    },
    {
      "anonymous": false,
      "inputs": [
        {
          "indexed": false,
          "internalType": "address",
          "name": "developer",
          "type": "address"
        },
        {
          "indexed": false,
          "internalType": "int96",
          "name": "pricePerSecond",
          "type": "int96"
        },
        {
          "indexed": false,
          "internalType": "uint256",
          "name": "perMonthLimit",
          "type": "uint256"
        },
        {
          "indexed": false,
          "internalType": "uint256",
          "name": "perSecondLimit",
          "type": "uint256"
        }
      ],
      "name": "PlanAdded",
      "type": "event"
    },
    {
      "anonymous": false,
      "inputs": [
        {
          "indexed": false,
          "internalType": "address",
          "name": "developer",
          "type": "address"
        },
        {
          "indexed": false,
          "internalType": "uint256",
          "name": "planIndex",
          "type": "uint256"
        }
      ],
      "name": "PlanDeactivated",
      "type": "event"
    },
    {
      "anonymous": false,
      "inputs": [
        {
          "indexed": true,
          "internalType": "bytes32",
          "name": "requestId",
          "type": "bytes32"
        },
        {
          "indexed": false,
          "internalType": "address",
          "name": "developer",
          "type": "address"
        },
        {
          "indexed": false,
          "internalType": "address",
          "name": "user",
          "type": "address"
        },
        {
          "indexed": false,
          "internalType": "uint256",
          "name": "count",
          "type": "uint256"
        }
      ],
      "name": "RequestFulfilled",
      "type": "event"
    },
    {
      "anonymous": false,
      "inputs": [
        {
          "indexed": false,
          "internalType": "address",
          "name": "developer",
          "type": "address"
        },
        {
          "indexed": false,
          "internalType": "address",
          "name": "user",
          "type": "address"
        },
        {
          "indexed": false,
          "internalType": "uint256",
          "name": "planIndex",
          "type": "uint256"
        }
      ],
      "name": "Subscribed",
      "type": "event"
    },
    {
      "anonymous": false,
      "inputs": [
        {
          "indexed": false,
          "internalType": "address",
          "name": "developer",
          "type": "address"
        },
        {
          "indexed": false,
          "internalType": "address",
          "name": "user",
          "type": "address"
        }
      ],
      "name": "Unsubscribed",
      "type": "event"
    },
    {
      "inputs": [
        {
          "internalType": "string",
          "name": "message",
          "type": "string"
        },
        {
          "internalType": "string",
          "name": "url",
          "type": "string"
        }
      ],
      "name": "addApi",
      "outputs": [],
      "stateMutability": "nonpayable",
      "type": "function"
    },
    {
      "inputs": [
        {
          "internalType": "int96",
          "name": "pricePerSecond",
          "type": "int96"
        },
        {
          "internalType": "uint256",
          "name": "perMonthLimit",
          "type": "uint256"
        },
        {
          "internalType": "uint256",
          "name": "perSecondLimit",
          "type": "uint256"
        }
      ],
      "name": "addPlan",
      "outputs": [
        {
          "internalType": "uint256",
          "name": "planIndex",
          "type": "uint256"
        }
      ],
      "stateMutability": "nonpayable",
      "type": "function"
    },
    {
      "inputs": [],
      "name": "cfaV1",
      "outputs": [
        {
          "internalType": "contract ISuperfluid",
          "name": "host",
          "type": "address"
        },
        {
          "internalType": "contract IConstantFlowAgreementV1",
          "name": "cfa",
          "type": "address"
        }
      ],
      "stateMutability": "view",
      "type": "function"
    },
    {
      "inputs": [],
      "name": "chainlinkFee",
      "outputs": [
        {
          "internalType": "uint256",
          "name": "",
          "type": "uint256"
        }
      ],
      "stateMutability": "view",
      "type": "function"
    },
    {
      "inputs": [],
      "name": "chainlinkJobId",
      "outputs": [
        {
          "internalType": "bytes32",
          "name": "",
          "type": "bytes32"
        }
      ],
      "stateMutability": "view",
      "type": "function"
    },
    {
      "inputs": [
        {
          "internalType": "bytes",
          "name": "",
          "type": "bytes"
        }
      ],
      "name": "checkUpkeep",
      "outputs": [
        {
          "internalType": "bool",
          "name": "upkeepNeeded",
          "type": "bool"
        },
        {
          "internalType": "bytes",
          "name": "performData",
          "type": "bytes"
        }
      ],
      "stateMutability": "view",
      "type": "function"
    },
    {
      "inputs": [
        {
          "internalType": "uint256",
          "name": "index",
          "type": "uint256"
        }
      ],
      "name": "deactivatePlan",
      "outputs": [],
      "stateMutability": "nonpayable",
      "type": "function"
    },
    {
      "inputs": [
        {
          "internalType": "address",
          "name": "user",
          "type": "address"
        },
        {
          "internalType": "uint256",
          "name": "count",
          "type": "uint256"
        }
      ],
      "name": "eatFromQuota",
      "outputs": [],
      "stateMutability": "nonpayable",
      "type": "function"
    },
    {
      "inputs": [
        {
          "internalType": "bytes32",
          "name": "requestId",
          "type": "bytes32"
        },
        {
          "internalType": "address",
          "name": "developer",
          "type": "address"
        },
        {
          "internalType": "address",
          "name": "user",
          "type": "address"
        },
        {
          "internalType": "uint256",
          "name": "count",
          "type": "uint256"
        }
      ],
      "name": "fulfillRequest",
      "outputs": [],
      "stateMutability": "nonpayable",
      "type": "function"
    },
    {
      "inputs": [
        {
          "internalType": "address",
          "name": "developer",
          "type": "address"
        }
      ],
      "name": "getPlans",
      "outputs": [
        {
          "components": [
            {
              "internalType": "int96",
              "name": "pricePerSecond",
              "type": "int96"
            },
            {
              "internalType": "uint256",
              "name": "perMonthLimit",
              "type": "uint256"
            },
            {
              "internalType": "uint256",
              "name": "perSecondLimit",
              "type": "uint256"
            },
            {
              "internalType": "bool",
              "name": "active",
              "type": "bool"
            }
          ],
          "internalType": "struct PayMyAPI.Plan[]",
          "name": "",
          "type": "tuple[]"
        }
      ],
      "stateMutability": "view",
      "type": "function"
    },
    {
      "inputs": [],
      "name": "interval",
      "outputs": [
        {
          "internalType": "uint256",
          "name": "",
          "type": "uint256"
        }
      ],
      "stateMutability": "view",
      "type": "function"
    },
    {
      "inputs": [
        {
          "internalType": "address",
          "name": "developer",
          "type": "address"
        },
        {
          "internalType": "address",
          "name": "user",
          "type": "address"
        }
      ],
      "name": "isSubscribed",
      "outputs": [
        {
          "internalType": "bool",
          "name": "",
          "type": "bool"
        }
      ],
      "stateMutability": "view",
      "type": "function"
    },
    {
      "inputs": [],
      "name": "lastTimeStamp",
      "outputs": [
        {
          "internalType": "uint256",
          "name": "",
          "type": "uint256"
        }
      ],
      "stateMutability": "view",
      "type": "function"
    },
    {
      "inputs": [
        {
          "internalType": "bytes",
          "name": "",
          "type": "bytes"
        }
      ],
      "name": "performUpkeep",
      "outputs": [],
      "stateMutability": "nonpayable",
      "type": "function"
    },
    {
      "inputs": [
        {
          "internalType": "address",
          "name": "developer",
          "type": "address"
        },
        {
          "internalType": "address",
          "name": "user",
          "type": "address"
        }
      ],
      "name": "requestUpdate",
      "outputs": [
        {
          "internalType": "bytes32",
          "name": "requestId",
          "type": "bytes32"
        }
      ],
      "stateMutability": "nonpayable",
      "type": "function"
    },
    {
      "inputs": [
        {
          "internalType": "address",
          "name": "developer",
          "type": "address"
        },
        {
          "internalType": "uint256",
          "name": "planId",
          "type": "uint256"
        }
      ],
      "name": "subscribe",
      "outputs": [],
      "stateMutability": "nonpayable",
      "type": "function"
    },
    {
      "inputs": [
        {
          "internalType": "address",
          "name": "developer",
          "type": "address"
        }
      ],
      "name": "unsubscribe",
      "outputs": [],
      "stateMutability": "nonpayable",
      "type": "function"
    },
    {
      "inputs": [
        {
          "internalType": "uint256",
          "name": "chainlinkFee_",
          "type": "uint256"
        }
      ],
      "name": "updateChainLinkFee",
      "outputs": [],
      "stateMutability": "nonpayable",
      "type": "function"
    },
    {
      "inputs": [
        {
          "internalType": "string",
          "name": "chainlinkJobId_",
          "type": "string"
        }
      ],
      "name": "updateChainLinkJobId",
      "outputs": [],
      "stateMutability": "nonpayable",
      "type": "function"
    },
    {
      "inputs": [
        {
          "internalType": "address",
          "name": "oracle",
          "type": "address"
        }
      ],
      "name": "updateChainLinkOracle",
      "outputs": [],
      "stateMutability": "nonpayable",
      "type": "function"
    },
    {
      "inputs": [
        {
          "internalType": "address",
          "name": "link",
          "type": "address"
        }
      ],
      "name": "updateChainLinkToken",
      "outputs": [],
      "stateMutability": "nonpayable",
      "type": "function"
    },
    {
      "inputs": [
        {
          "internalType": "uint256",
          "name": "timestamp",
          "type": "uint256"
        }
      ],
      "name": "updateLastTimestamp",
      "outputs": [],
      "stateMutability": "nonpayable",
      "type": "function"
    },
    {
      "inputs": [
        {
          "internalType": "contract ISuperfluidToken",
          "name": "token_",
          "type": "address"
        }
      ],
      "name": "updateSuperfluidToken",
      "outputs": [],
      "stateMutability": "nonpayable",
      "type": "function"
    },
    {
      "inputs": [
        {
          "internalType": "string",
          "name": "message",
          "type": "string"
        },
        {
          "internalType": "address",
          "name": "_address",
          "type": "address"
        },
        {
          "internalType": "bytes",
          "name": "signature",
          "type": "bytes"
        }
      ],
      "name": "verifyMessage",
      "outputs": [
        {
          "internalType": "address",
          "name": "",
          "type": "address"
        },
        {
          "internalType": "bool",
          "name": "",
          "type": "bool"
        }
      ],
      "stateMutability": "pure",
      "type": "function"
    }
  ],
  "bytecode": "0x60a060405260016004553480156200001657600080fd5b50604051620041383803806200413883398181016040528101906200003c919062000461565b60405180604001604052808873ffffffffffffffffffffffffffffffffffffffff1681526020018873ffffffffffffffffffffffffffffffffffffffff1663b6d200de7fa9214cc96615e0085d3bb077758db69497dc2dce3b2b1e97bc93c3d18d83efd36040518263ffffffff1660e01b8152600401620000be919062000538565b60206040518083038186803b158015620000d757600080fd5b505afa158015620000ec573d6000803e3d6000fd5b505050506040513d601f19601f8201168201806040525081019062000112919062000435565b73ffffffffffffffffffffffffffffffffffffffff16815250600a60008201518160000160006101000a81548173ffffffffffffffffffffffffffffffffffffffff021916908373ffffffffffffffffffffffffffffffffffffffff16021790555060208201518160010160006101000a81548173ffffffffffffffffffffffffffffffffffffffff021916908373ffffffffffffffffffffffffffffffffffffffff16021790555090505085600c60006101000a81548173ffffffffffffffffffffffffffffffffffffffff021916908373ffffffffffffffffffffffffffffffffffffffff16021790555062000210856200029c60201b60201c565b6200022184620002e060201b60201c565b826080818152505042600d8190555062000241826200032460201b60201c565b600e8190555080600f8190555033601060006101000a81548173ffffffffffffffffffffffffffffffffffffffff021916908373ffffffffffffffffffffffffffffffffffffffff16021790555050505050505050620006fa565b80600260006101000a81548173ffffffffffffffffffffffffffffffffffffffff021916908373ffffffffffffffffffffffffffffffffffffffff16021790555050565b80600360006101000a81548173ffffffffffffffffffffffffffffffffffffffff021916908373ffffffffffffffffffffffffffffffffffffffff16021790555050565b60008082905060008151141562000342576000801b9150506200034b565b60208301519150505b919050565b600062000367620003618462000589565b62000555565b9050828152602081018484840111156200038057600080fd5b6200038d84828562000640565b509392505050565b600081519050620003a68162000678565b92915050565b600081519050620003bd8162000692565b92915050565b600081519050620003d481620006ac565b92915050565b600081519050620003eb81620006c6565b92915050565b600082601f8301126200040357600080fd5b81516200041584826020860162000350565b91505092915050565b6000815190506200042f81620006e0565b92915050565b6000602082840312156200044857600080fd5b60006200045884828501620003ac565b91505092915050565b600080600080600080600060e0888a0312156200047d57600080fd5b60006200048d8a828b01620003da565b9750506020620004a08a828b01620003c3565b9650506040620004b38a828b0162000395565b9550506060620004c68a828b0162000395565b9450506080620004d98a828b016200041e565b93505060a088015167ffffffffffffffff811115620004f757600080fd5b620005058a828b01620003f1565b92505060c0620005188a828b016200041e565b91505092959891949750929550565b6200053281620005d0565b82525050565b60006020820190506200054f600083018462000527565b92915050565b6000604051905081810181811067ffffffffffffffff821117156200057f576200057e62000676565b5b8060405250919050565b600067ffffffffffffffff821115620005a757620005a662000676565b5b601f19601f8301169050602081019050919050565b6000620005c98262000616565b9050919050565b6000819050919050565b6000620005e782620005bc565b9050919050565b6000620005fb82620005bc565b9050919050565b60006200060f82620005bc565b9050919050565b600073ffffffffffffffffffffffffffffffffffffffff82169050919050565b6000819050919050565b60005b838110156200066057808201518184015260208101905062000643565b8381111562000670576000848401525b50505050565bfe5b6200068381620005bc565b81146200068f57600080fd5b50565b6200069d81620005da565b8114620006a957600080fd5b50565b620006b781620005ee565b8114620006c357600080fd5b50565b620006d18162000602565b8114620006dd57600080fd5b50565b620006eb8162000636565b8114620006f757600080fd5b50565b608051613a1e6200071a6000398061095b52806112f75250613a1e6000f3fe608060405234801561001057600080fd5b50600436106101585760003560e01c8063869610c8116100c3578063cda9319a1161007c578063cda9319a146103c3578063d3112b2e146103df578063df2ce87e146103fe578063e8a83f0c1461041a578063f6416ef614610436578063f9bd13761461046657610158565b8063869610c8146102f05780638867c0a51461030c5780638de6928414610328578063947a36fb14610344578063b582b2f414610362578063bcc1e4151461039257610158565b80636174bc63116101155780636174bc631461021d5780636e04ff0d146102395780636ebe603b1461026a5780637262561c1461028657806378a2cfc9146102a25780637ac98be1146102d257610158565b80630b97a13a1461015d5780633f3b3b27146101795780634585e33b1461019757806351758733146101b35780635dd5f179146101d15780635de54d25146101ed575b600080fd5b61017760048036038101906101729190612ed3565b610482565b005b6101816104e6565b60405161018e9190613665565b60405180910390f35b6101b160048036038101906101ac9190612cdd565b6104ec565b005b6101bb6106cd565b6040516101c89190613581565b60405180910390f35b6101eb60048036038101906101e69190612bd9565b6106d3565b005b61020760048036038101906102029190612c02565b610739565b6040516102149190613581565b60405180910390f35b61023760048036038101906102329190612ed3565b61081b565b005b610253600480360381019061024e9190612cdd565b610955565b604051610261929190613551565b60405180910390f35b610284600480360381019061027f9190612d22565b6109c1565b005b6102a0600480360381019061029b9190612bd9565b610a5f565b005b6102bc60048036038101906102b79190612bd9565b610b33565b6040516102c99190613514565b60405180910390f35b6102da610c20565b6040516102e79190613665565b60405180910390f35b61030a60048036038101906103059190612c7a565b610c26565b005b61032660048036038101906103219190612d9a565b610f0e565b005b610342600480360381019061033d9190612c3e565b610fbf565b005b61034c6112f5565b6040516103599190613665565b60405180910390f35b61037c60048036038101906103779190612d4b565b611319565b6040516103899190613665565b60405180910390f35b6103ac60048036038101906103a79190612e54565b61153d565b6040516103ba92919061345d565b60405180910390f35b6103dd60048036038101906103d89190612c3e565b6115bf565b005b6103e761174d565b6040516103f592919061359c565b60405180910390f35b61041860048036038101906104139190612bd9565b61179f565b005b610434600480360381019061042f9190612ddf565b611805565b005b610450600480360381019061044b9190612c02565b61193c565b60405161045d9190613536565b60405180910390f35b610480600480360381019061047b9190612ed3565b6119d3565b005b601060009054906101000a900473ffffffffffffffffffffffffffffffffffffffff1673ffffffffffffffffffffffffffffffffffffffff163373ffffffffffffffffffffffffffffffffffffffff16146104dc57600080fd5b42600d8190555050565b600d5481565b42600d819055506000600980549050905060005b818110156106c75760006009828154811061051757fe5b9060005260206000200160009054906101000a900473ffffffffffffffffffffffffffffffffffffffff1690506000600760008373ffffffffffffffffffffffffffffffffffffffff1673ffffffffffffffffffffffffffffffffffffffff16815260200190815260200160002080549050905060005b818110156106b9576000600760008573ffffffffffffffffffffffffffffffffffffffff1673ffffffffffffffffffffffffffffffffffffffff16815260200190815260200160002082815481106105e257fe5b9060005260206000200160009054906101000a900473ffffffffffffffffffffffffffffffffffffffff169050600660008273ffffffffffffffffffffffffffffffffffffffff1673ffffffffffffffffffffffffffffffffffffffff16815260200190815260200160002060008573ffffffffffffffffffffffffffffffffffffffff1673ffffffffffffffffffffffffffffffffffffffff16815260200190815260200160002060020160009054906101000a900460ff16156106ad576106ab8482610739565b505b5060018101905061058e565b505050600181019050610500565b50505050565b600e5481565b601060009054906101000a900473ffffffffffffffffffffffffffffffffffffffff1673ffffffffffffffffffffffffffffffffffffffff163373ffffffffffffffffffffffffffffffffffffffff161461072d57600080fd5b61073681611a37565b50565b600080610750600e543063869610c860e01b611a7b565b90506108066040518060400160405280600381526020017f6765740000000000000000000000000000000000000000000000000000000000815250600860008773ffffffffffffffffffffffffffffffffffffffff1673ffffffffffffffffffffffffffffffffffffffff1681526020019081526020016000206002016107d686611aac565b6040516020016107e7929190613337565b60405160208183030381529060405283611c109092919063ffffffff16565b61081281600f54611c43565b91505092915050565b600860003373ffffffffffffffffffffffffffffffffffffffff1673ffffffffffffffffffffffffffffffffffffffff1681526020019081526020016000206003018054905081106108a2576040517f08c379a0000000000000000000000000000000000000000000000000000000008152600401610899906135c5565b60405180910390fd5b6000600860003373ffffffffffffffffffffffffffffffffffffffff1673ffffffffffffffffffffffffffffffffffffffff16815260200190815260200160002060030182815481106108f157fe5b906000526020600020906004020160030160006101000a81548160ff0219169083151502179055507f30b288767e7b5033d5d1ad23b1303aa7b3b671ff64b0aebe9785a3ecd91406ee338260405161094a92919061339d565b60405180910390a150565b600060607f0000000000000000000000000000000000000000000000000000000000000000600d5442031191506040518060400160405280600281526020017f307800000000000000000000000000000000000000000000000000000000000081525090509250929050565b601060009054906101000a900473ffffffffffffffffffffffffffffffffffffffff1673ffffffffffffffffffffffffffffffffffffffff163373ffffffffffffffffffffffffffffffffffffffff1614610a1b57600080fd5b80600c60006101000a81548173ffffffffffffffffffffffffffffffffffffffff021916908373ffffffffffffffffffffffffffffffffffffffff16021790555050565b6000600660003373ffffffffffffffffffffffffffffffffffffffff1673ffffffffffffffffffffffffffffffffffffffff16815260200190815260200160002060008373ffffffffffffffffffffffffffffffffffffffff1673ffffffffffffffffffffffffffffffffffffffff16815260200190815260200160002060020160006101000a81548160ff0219169083151502179055507f7773c30acd0762ed6b4b92a9aa2c6b3c074e29ad93b334cbed8ba807c596f13a8133604051610b289291906133c6565b60405180910390a150565b6060600860008373ffffffffffffffffffffffffffffffffffffffff1673ffffffffffffffffffffffffffffffffffffffff168152602001908152602001600020600301805480602002602001604051908101604052809291908181526020016000905b82821015610c1557838290600052602060002090600402016040518060800160405290816000820160009054906101000a9004600b0b600b0b600b0b815260200160018201548152602001600282015481526020016003820160009054906101000a900460ff16151515158152505081526020019060010190610b97565b505050509050919050565b600f5481565b836005600082815260200190815260200160002060009054906101000a900473ffffffffffffffffffffffffffffffffffffffff1673ffffffffffffffffffffffffffffffffffffffff163373ffffffffffffffffffffffffffffffffffffffff1614610cde576040517f08c379a00000000000000000000000000000000000000000000000000000000081526004018080602001828103825260288152602001806139c16028913960400191505060405180910390fd5b6005600082815260200190815260200160002060006101000a81549073ffffffffffffffffffffffffffffffffffffffff0219169055807f7cc135e0cebb02c3480ae5d74d377283180a2601f8f644edf7987b009316c63a60405160405180910390a2847f08f9980d279d97af789efe64f524c86caf071f1c01f9ace391e80a78e80c2955858585604051610d7593929190613426565b60405180910390a281600660008573ffffffffffffffffffffffffffffffffffffffff1673ffffffffffffffffffffffffffffffffffffffff16815260200190815260200160002060008673ffffffffffffffffffffffffffffffffffffffff1673ffffffffffffffffffffffffffffffffffffffff168152602001908152602001600020600001541015610e3f576040517f08c379a0000000000000000000000000000000000000000000000000000000008152600401610e3690613605565b60405180910390fd5b81600660008573ffffffffffffffffffffffffffffffffffffffff1673ffffffffffffffffffffffffffffffffffffffff16815260200190815260200160002060008673ffffffffffffffffffffffffffffffffffffffff1673ffffffffffffffffffffffffffffffffffffffff168152602001908152602001600020600001600082825403925050819055507f6f9bf4aa11575eb09e537114fe9b81e270aca16f4099d3eab211f6999043f1af848484604051610eff93929190613426565b60405180910390a15050505050565b601060009054906101000a900473ffffffffffffffffffffffffffffffffffffffff1673ffffffffffffffffffffffffffffffffffffffff163373ffffffffffffffffffffffffffffffffffffffff1614610f6857600080fd5b610fb582828080601f016020809104026020016040519081016040528093929190818152602001838380828437600081840152601f19601f82011690508083019250505050505050611c7a565b600e819055505050565b600860008373ffffffffffffffffffffffffffffffffffffffff1673ffffffffffffffffffffffffffffffffffffffff168152602001908152602001600020600301805490508110611046576040517f08c379a000000000000000000000000000000000000000000000000000000000815260040161103d90613645565b60405180910390fd5b6000600860008473ffffffffffffffffffffffffffffffffffffffff1673ffffffffffffffffffffffffffffffffffffffff168152602001908152602001600020600301828154811061109557fe5b90600052602060002090600402016040518060800160405290816000820160009054906101000a9004600b0b600b0b600b0b815260200160018201548152602001600282015481526020016003820160009054906101000a900460ff16151515158152505090508060600151611140576040517f08c379a000000000000000000000000000000000000000000000000000000000815260040161113790613625565b60405180910390fd5b60405180606001604052808260200151815260200183815260200160011515815250600660003373ffffffffffffffffffffffffffffffffffffffff1673ffffffffffffffffffffffffffffffffffffffff16815260200190815260200160002060008573ffffffffffffffffffffffffffffffffffffffff1673ffffffffffffffffffffffffffffffffffffffff168152602001908152602001600020600082015181600001556020820151816001015560408201518160020160006101000a81548160ff021916908315150217905550905050600760008473ffffffffffffffffffffffffffffffffffffffff1673ffffffffffffffffffffffffffffffffffffffff168152602001908152602001600020339080600181540180825580915050600190039060005260206000200160009091909190916101000a81548173ffffffffffffffffffffffffffffffffffffffff021916908373ffffffffffffffffffffffffffffffffffffffff1602179055507f1299b0ad0a8e7c2403716ae6507195ba96bd8cac7f49d8c129e18f9ae51374f08333846040516112e8939291906133ef565b60405180910390a1505050565b7f000000000000000000000000000000000000000000000000000000000000000081565b600080339050600860008273ffffffffffffffffffffffffffffffffffffffff1673ffffffffffffffffffffffffffffffffffffffff16815260200190815260200160002060000160009054906101000a900460ff166113ae576040517f08c379a00000000000000000000000000000000000000000000000000000000081526004016113a5906135e5565b60405180910390fd5b600860008273ffffffffffffffffffffffffffffffffffffffff1673ffffffffffffffffffffffffffffffffffffffff168152602001908152602001600020600301604051806080016040528087600b0b815260200186815260200185815260200160011515815250908060018154018082558091505060019003906000526020600020906004020160009091909190915060008201518160000160006101000a8154816bffffffffffffffffffffffff0219169083600b0b6bffffffffffffffffffffffff160217905550602082015181600101556040820151816002015560608201518160030160006101000a81548160ff02191690831515021790555050507f7499b999a2573050b0ac53732ad5e7b940249625cfdca0a841857325332866a5818686866040516114e59493929190613486565b60405180910390a1600860008273ffffffffffffffffffffffffffffffffffffffff1673ffffffffffffffffffffffffffffffffffffffff168152602001908152602001600020600301805490509150509392505050565b60008060008580519060200120905060006115698561155b84611ca4565b611cfc90919063ffffffff16565b90508073ffffffffffffffffffffffffffffffffffffffff168673ffffffffffffffffffffffffffffffffffffffff1614156115ad578060019350935050506115b7565b8060009350935050505b935093915050565b80600660008473ffffffffffffffffffffffffffffffffffffffff1673ffffffffffffffffffffffffffffffffffffffff16815260200190815260200160002060003373ffffffffffffffffffffffffffffffffffffffff1673ffffffffffffffffffffffffffffffffffffffff168152602001908152602001600020600001541015611681576040517f08c379a000000000000000000000000000000000000000000000000000000000815260040161167890613605565b60405180910390fd5b80600660008473ffffffffffffffffffffffffffffffffffffffff1673ffffffffffffffffffffffffffffffffffffffff16815260200190815260200160002060003373ffffffffffffffffffffffffffffffffffffffff1673ffffffffffffffffffffffffffffffffffffffff168152602001908152602001600020600001600082825403925050819055507f6f9bf4aa11575eb09e537114fe9b81e270aca16f4099d3eab211f6999043f1af33838360405161174193929190613366565b60405180910390a15050565b600a8060000160009054906101000a900473ffffffffffffffffffffffffffffffffffffffff16908060010160009054906101000a900473ffffffffffffffffffffffffffffffffffffffff16905082565b601060009054906101000a900473ffffffffffffffffffffffffffffffffffffffff1673ffffffffffffffffffffffffffffffffffffffff163373ffffffffffffffffffffffffffffffffffffffff16146117f957600080fd5b61180281611da9565b50565b60003390506000600860008373ffffffffffffffffffffffffffffffffffffffff1673ffffffffffffffffffffffffffffffffffffffff168152602001908152602001600020905060018160000160006101000a81548160ff021916908315150217905550858582600101919061187d9291906128da565b5083838260020191906118919291906128da565b506009829080600181540180825580915050600190039060005260206000200160009091909190916101000a81548173ffffffffffffffffffffffffffffffffffffffff021916908373ffffffffffffffffffffffffffffffffffffffff1602179055507fc4ae15b824cca62f004d876ad67386f89eaee1c5444d1c26f9b147eac892ce4f828787878760405161192c9594939291906134cb565b60405180910390a1505050505050565b6000600660008373ffffffffffffffffffffffffffffffffffffffff1673ffffffffffffffffffffffffffffffffffffffff16815260200190815260200160002060008473ffffffffffffffffffffffffffffffffffffffff1673ffffffffffffffffffffffffffffffffffffffff16815260200190815260200160002060020160009054906101000a900460ff16905092915050565b601060009054906101000a900473ffffffffffffffffffffffffffffffffffffffff1673ffffffffffffffffffffffffffffffffffffffff163373ffffffffffffffffffffffffffffffffffffffff1614611a2d57600080fd5b80600f8190555050565b80600260006101000a81548173ffffffffffffffffffffffffffffffffffffffff021916908373ffffffffffffffffffffffffffffffffffffffff16021790555050565b611a83612968565b611a8b612968565b611aa285858584611ded909392919063ffffffff16565b9150509392505050565b60606000602867ffffffffffffffff81118015611ac857600080fd5b506040519080825280601f01601f191660200182016040528015611afb5781602001600182028036833780820191505090505b50905060005b6014811015611c065760008160130360080260020a8573ffffffffffffffffffffffffffffffffffffffff1681611b3457fe5b0460f81b9050600060108260f81c60ff1681611b4c57fe5b0460f81b905060008160f81c6010028360f81c0360f81b9050611b6e82611e9d565b858560020281518110611b7d57fe5b60200101907effffffffffffffffffffffffffffffffffffffffffffffffffffffffffffff1916908160001a905350611bb581611e9d565b856001866002020181518110611bc757fe5b60200101907effffffffffffffffffffffffffffffffffffffffffffffffffffffffffffff1916908160001a9053505050508080600101915050611b01565b5080915050919050565b611c27828460800151611ed190919063ffffffff16565b611c3e818460800151611ed190919063ffffffff16565b505050565b6000611c72600360009054906101000a900473ffffffffffffffffffffffffffffffffffffffff168484611ef6565b905092915050565b600080829050600081511415611c96576000801b915050611c9f565b60208301519150505b919050565b60008160405160200180807f19457468657265756d205369676e6564204d6573736167653a0a333200000000815250601c01828152602001915050604051602081830303815290604052805190602001209050919050565b60006041825114611d75576040517f08c379a000000000000000000000000000000000000000000000000000000000815260040180806020018281038252601f8152602001807f45434453413a20696e76616c6964207369676e6174757265206c656e6774680081525060200191505060405180910390fd5b60008060006020850151925060408501519150606085015160001a9050611d9e86828585612093565b935050505092915050565b80600360006101000a81548173ffffffffffffffffffffffffffffffffffffffff021916908373ffffffffffffffffffffffffffffffffffffffff16021790555050565b611df5612968565b611e058560800151610100612292565b508385600001818152505082856020019073ffffffffffffffffffffffffffffffffffffffff16908173ffffffffffffffffffffffffffffffffffffffff16815250508185604001907bffffffffffffffffffffffffffffffffffffffffffffffffffffffff191690817bffffffffffffffffffffffffffffffffffffffffffffffffffffffff191681525050849050949350505050565b6000600a8260f81c60ff161015611ebf5760308260f81c0160f81b9050611ecc565b60578260f81c0160f81b90505b919050565b611ede82600383516122e6565b611ef1818361246b90919063ffffffff16565b505050565b6000806004549050600181016004819055506000634042994660e01b60008087600001513089604001518760018c6080015160000151604051602401808973ffffffffffffffffffffffffffffffffffffffff1681526020018881526020018781526020018673ffffffffffffffffffffffffffffffffffffffff168152602001857bffffffffffffffffffffffffffffffffffffffffffffffffffffffff1916815260200184815260200183815260200180602001828103825283818151815260200191508051906020019080838360005b83811015611fe4578082015181840152602081019050611fc9565b50505050905090810190601f1680156120115780820380516001836020036101000a031916815260200191505b509950505050505050505050604051602081830303815290604052907bffffffffffffffffffffffffffffffffffffffffffffffffffffffff19166020820180517bffffffffffffffffffffffffffffffffffffffffffffffffffffffff838183161783525050505090506120888683868461248d565b925050509392505050565b60007f7fffffffffffffffffffffffffffffff5d576e7357a4501ddfe92f46681b20a08260001c1115612111576040517f08c379a000000000000000000000000000000000000000000000000000000000815260040180806020018281038252602281526020018061397d6022913960400191505060405180910390fd5b601b8460ff1614806121265750601c8460ff16145b61217b576040517f08c379a000000000000000000000000000000000000000000000000000000000815260040180806020018281038252602281526020018061399f6022913960400191505060405180910390fd5b600060018686868660405160008152602001604052604051808581526020018460ff1681526020018381526020018281526020019450505050506020604051602081039080840390855afa1580156121d7573d6000803e3d6000fd5b505050602060405103519050600073ffffffffffffffffffffffffffffffffffffffff168173ffffffffffffffffffffffffffffffffffffffff161415612286576040517f08c379a00000000000000000000000000000000000000000000000000000000081526004018080602001828103825260188152602001807f45434453413a20696e76616c6964207369676e6174757265000000000000000081525060200191505060405180910390fd5b80915050949350505050565b61229a6129d5565b6000602083816122a657fe5b06146122bf57602082816122b657fe5b06602003820191505b81836020018181525050604051808452600081528281016020016040525082905092915050565b60178167ffffffffffffffff161161231d576123178160058460ff16901b60ff1617846126f090919063ffffffff16565b50612466565b60ff8167ffffffffffffffff16116123735761234c601860058460ff16901b17846126f090919063ffffffff16565b5061236d8167ffffffffffffffff166001856127109092919063ffffffff16565b50612465565b61ffff8167ffffffffffffffff16116123ca576123a3601960058460ff16901b17846126f090919063ffffffff16565b506123c48167ffffffffffffffff166002856127109092919063ffffffff16565b50612464565b63ffffffff8167ffffffffffffffff1611612423576123fc601a60058460ff16901b17846126f090919063ffffffff16565b5061241d8167ffffffffffffffff166004856127109092919063ffffffff16565b50612463565b612440601b60058460ff16901b17846126f090919063ffffffff16565b506124618167ffffffffffffffff166008856127109092919063ffffffff16565b505b5b5b5b505050565b6124736129d5565b61248583846000015151848551612732565b905092915050565b60003084604051602001808373ffffffffffffffffffffffffffffffffffffffff1660601b815260140182815260200192505050604051602081830303815290604052805190602001209050846005600083815260200190815260200160002060006101000a81548173ffffffffffffffffffffffffffffffffffffffff021916908373ffffffffffffffffffffffffffffffffffffffff160217905550807fb5e6e01e79f91267dc17b4e6314d5d4d03593d2ceee0fbb452b750bd70ea5af960405160405180910390a2600260009054906101000a900473ffffffffffffffffffffffffffffffffffffffff1673ffffffffffffffffffffffffffffffffffffffff16634000aea08685856040518463ffffffff1660e01b8152600401808473ffffffffffffffffffffffffffffffffffffffff16815260200183815260200180602001828103825283818151815260200191508051906020019080838360005b8381101561260a5780820151818401526020810190506125ef565b50505050905090810190601f1680156126375780820380516001836020036101000a031916815260200191505b50945050505050602060405180830381600087803b15801561265857600080fd5b505af115801561266c573d6000803e3d6000fd5b505050506040513d602081101561268257600080fd5b81019080805190602001909291905050506126e8576040517f08c379a000000000000000000000000000000000000000000000000000000000815260040180806020018281038252602381526020018061395a6023913960400191505060405180910390fd5b949350505050565b6126f86129d5565b61270883846000015151846127eb565b905092915050565b6127186129d5565b612729848560000151518585612839565b90509392505050565b61273a6129d5565b825182111561274857600080fd5b846020015182850111156127735761277285600261276c886020015188870161289a565b026128b6565b5b6000808651805187602083010193508088870111156127925787860182525b60208701925050505b602084106127be578051825260208201915060208101905060208403935061279b565b60006001856020036101000a03905080198251168184511681811785525050879350505050949350505050565b6127f36129d5565b836020015183106128105761280f8460028660200151026128b6565b5b835180516020858301018481538186141561282c576001820183525b5050508390509392505050565b6128416129d5565b8460200151848301111561285f5761285e856002868501026128b6565b5b60006001836101000a039050855183868201018583198251161781528151858801111561288c5784870182525b505085915050949350505050565b6000818311156128ac578290506128b0565b8190505b92915050565b6000826000015190506128c98383612292565b506128d4838261246b565b50505050565b828054600181600116156101000203166002900490600052602060002090601f0160209004810192826129105760008555612957565b82601f1061292957803560ff1916838001178555612957565b82800160010185558215612957579182015b8281111561295657823582559160200191906001019061293b565b5b50905061296491906129ef565b5090565b6040518060a0016040528060008019168152602001600073ffffffffffffffffffffffffffffffffffffffff16815260200160007bffffffffffffffffffffffffffffffffffffffffffffffffffffffff19168152602001600081526020016129cf6129d5565b81525090565b604051806040016040528060608152602001600081525090565b5b80821115612a085760008160009055506001016129f0565b5090565b6000612a1f612a1a846136b1565b613680565b905082815260208101848484011115612a3757600080fd5b612a42848285613891565b509392505050565b6000612a5d612a58846136e1565b613680565b905082815260208101848484011115612a7557600080fd5b612a80848285613891565b509392505050565b600081359050612a97816138e6565b92915050565b600081359050612aac816138fd565b92915050565b60008083601f840112612ac457600080fd5b8235905067ffffffffffffffff811115612add57600080fd5b602083019150836001820283011115612af557600080fd5b9250929050565b600082601f830112612b0d57600080fd5b8135612b1d848260208601612a0c565b91505092915050565b600081359050612b3581613914565b92915050565b600081359050612b4a8161392b565b92915050565b60008083601f840112612b6257600080fd5b8235905067ffffffffffffffff811115612b7b57600080fd5b602083019150836001820283011115612b9357600080fd5b9250929050565b600082601f830112612bab57600080fd5b8135612bbb848260208601612a4a565b91505092915050565b600081359050612bd381613942565b92915050565b600060208284031215612beb57600080fd5b6000612bf984828501612a88565b91505092915050565b60008060408385031215612c1557600080fd5b6000612c2385828601612a88565b9250506020612c3485828601612a88565b9150509250929050565b60008060408385031215612c5157600080fd5b6000612c5f85828601612a88565b9250506020612c7085828601612bc4565b9150509250929050565b60008060008060808587031215612c9057600080fd5b6000612c9e87828801612a9d565b9450506020612caf87828801612a88565b9350506040612cc087828801612a88565b9250506060612cd187828801612bc4565b91505092959194509250565b60008060208385031215612cf057600080fd5b600083013567ffffffffffffffff811115612d0a57600080fd5b612d1685828601612ab2565b92509250509250929050565b600060208284031215612d3457600080fd5b6000612d4284828501612b26565b91505092915050565b600080600060608486031215612d6057600080fd5b6000612d6e86828701612b3b565b9350506020612d7f86828701612bc4565b9250506040612d9086828701612bc4565b9150509250925092565b60008060208385031215612dad57600080fd5b600083013567ffffffffffffffff811115612dc757600080fd5b612dd385828601612b50565b92509250509250929050565b60008060008060408587031215612df557600080fd5b600085013567ffffffffffffffff811115612e0f57600080fd5b612e1b87828801612b50565b9450945050602085013567ffffffffffffffff811115612e3a57600080fd5b612e4687828801612b50565b925092505092959194509250565b600080600060608486031215612e6957600080fd5b600084013567ffffffffffffffff811115612e8357600080fd5b612e8f86828701612b9a565b9350506020612ea086828701612a88565b925050604084013567ffffffffffffffff811115612ebd57600080fd5b612ec986828701612afc565b9150509250925092565b600060208284031215612ee557600080fd5b6000612ef384828501612bc4565b91505092915050565b6000612f0883836132c4565b60808301905092915050565b612f1d81613813565b82525050565b612f2c816137a2565b82525050565b6000612f3d82613736565b612f478185613764565b9350612f5283613711565b8060005b83811015612f83578151612f6a8882612efc565b9750612f7583613757565b925050600181019050612f56565b5085935050505092915050565b612f99816137b4565b82525050565b612fa8816137b4565b82525050565b612fb7816137c0565b82525050565b6000612fc882613741565b612fd28185613775565b9350612fe28185602086016138a0565b612feb816138d5565b840191505092915050565b612fff81613825565b82525050565b61300e81613849565b82525050565b61301d816137dc565b82525050565b61302c816137dc565b82525050565b600061303e8385613786565b935061304b838584613891565b613054836138d5565b840190509392505050565b600061306a8261374c565b6130748185613797565b93506130848185602086016138a0565b80840191505092915050565b6000815460018116600081146130ad57600181146130d257613116565b607f60028304166130be8187613797565b955060ff1983168652808601935050613116565b600282046130e08187613797565b95506130eb85613721565b60005b8281101561310d578154818901526001820191506020810190506130ee565b82880195505050505b505092915050565b600061312b601083613797565b91507f2f7061796d796170692f75736167652f000000000000000000000000000000006000830152601082019050919050565b600061316b600d83613786565b91507f496e76616c696420696e646578000000000000000000000000000000000000006000830152602082019050919050565b60006131ab601183613786565b91507f415049206e6f74207365747570207965740000000000000000000000000000006000830152602082019050919050565b60006131eb601b83613786565b91507f4e6f7420656e6f7567682072656d61696e696e672071756f74612100000000006000830152602082019050919050565b600061322b602983613786565b91507f547279696e6720746f2073756273637269626520746f2061206465616374697660008301527f6174656420706c616e00000000000000000000000000000000000000000000006020830152604082019050919050565b6000613291600f83613786565b91507f496e76616c696420706c616e20494400000000000000000000000000000000006000830152602082019050919050565b6080820160008201516132da6000850182613014565b5060208201516132ed6020850182613319565b5060408201516133006040850182613319565b5060608201516133136060850182612f90565b50505050565b61332281613809565b82525050565b61333181613809565b82525050565b60006133438285613090565b915061334e8261311e565b915061335a828461305f565b91508190509392505050565b600060608201905061337b6000830186612f14565b6133886020830185612f23565b6133956040830184613328565b949350505050565b60006040820190506133b26000830185612f14565b6133bf6020830184613328565b9392505050565b60006040820190506133db6000830185612f23565b6133e86020830184612f14565b9392505050565b60006060820190506134046000830186612f23565b6134116020830185612f14565b61341e6040830184613328565b949350505050565b600060608201905061343b6000830186612f23565b6134486020830185612f23565b6134556040830184613328565b949350505050565b60006040820190506134726000830185612f23565b61347f6020830184612f9f565b9392505050565b600060808201905061349b6000830187612f23565b6134a86020830186613023565b6134b56040830185613328565b6134c26060830184613328565b95945050505050565b60006060820190506134e06000830188612f23565b81810360208301526134f3818688613032565b90508181036040830152613508818486613032565b90509695505050505050565b6000602082019050818103600083015261352e8184612f32565b905092915050565b600060208201905061354b6000830184612f9f565b92915050565b60006040820190506135666000830185612f9f565b81810360208301526135788184612fbd565b90509392505050565b60006020820190506135966000830184612fae565b92915050565b60006040820190506135b16000830185613005565b6135be6020830184612ff6565b9392505050565b600060208201905081810360008301526135de8161315e565b9050919050565b600060208201905081810360008301526135fe8161319e565b9050919050565b6000602082019050818103600083015261361e816131de565b9050919050565b6000602082019050818103600083015261363e8161321e565b9050919050565b6000602082019050818103600083015261365e81613284565b9050919050565b600060208201905061367a6000830184613328565b92915050565b6000604051905081810181811067ffffffffffffffff821117156136a7576136a66138d3565b5b8060405250919050565b600067ffffffffffffffff8211156136cc576136cb6138d3565b5b601f19601f8301169050602081019050919050565b600067ffffffffffffffff8211156136fc576136fb6138d3565b5b601f19601f8301169050602081019050919050565b6000819050602082019050919050565b60008190508160005260206000209050919050565b600081519050919050565b600081519050919050565b600081519050919050565b6000602082019050919050565b600082825260208201905092915050565b600082825260208201905092915050565b600082825260208201905092915050565b600081905092915050565b60006137ad826137e9565b9050919050565b60008115159050919050565b6000819050919050565b60006137d5826137a2565b9050919050565b600081600b0b9050919050565b600073ffffffffffffffffffffffffffffffffffffffff82169050919050565b6000819050919050565b600061381e8261386d565b9050919050565b600061383082613837565b9050919050565b6000613842826137e9565b9050919050565b60006138548261385b565b9050919050565b6000613866826137e9565b9050919050565b60006138788261387f565b9050919050565b600061388a826137e9565b9050919050565b82818337600083830152505050565b60005b838110156138be5780820151818401526020810190506138a3565b838111156138cd576000848401525b50505050565bfe5b6000601f19601f8301169050919050565b6138ef816137a2565b81146138fa57600080fd5b50565b613906816137c0565b811461391157600080fd5b50565b61391d816137ca565b811461392857600080fd5b50565b613934816137dc565b811461393f57600080fd5b50565b61394b81613809565b811461395657600080fd5b5056fe756e61626c6520746f207472616e73666572416e6443616c6c20746f206f7261636c6545434453413a20696e76616c6964207369676e6174757265202773272076616c756545434453413a20696e76616c6964207369676e6174757265202776272076616c7565536f75726365206d75737420626520746865206f7261636c65206f66207468652072657175657374a2646970667358221220b3d1d89b77921f1251ad02fd84ee14d241230983da2a2401b4381a5e99c1143064736f6c63430007060033",
  "linkReferences": {},
  "deployedLinkReferences": {}
}